:020000040800F2
:10000000F8080020D9010008650500085D05000812
:1000100061050008E9040008E90600080000000086
:10002000000000000000000000000000690500085A
:100030005B05000800000000670500086B0500086C
:10004000F3010008F3010008F3010008F3010008C0
:10005000F3010008F3010008F3010008F3010008B0
:10006000F3010008F3010008F3010008F3010008A0
:10007000F3010008F3010008F3010008F301000890
:10008000F3010008F3010008F3010008F301000880
:10009000F3010008ED040008F3010008F301000873
:1000A000F3010008F3010008F3010008F301000860
:1000B000F30100081D060008F3010008F301000821
:1000C000F3010008F3010008F3010008F301000840
:1000D000F301000855060008F3010008F3010008C9
:1000E000F3010008F3010008F3010008F301000820
:1000F000F3010008F3010008F3010008F301000810
:10010000F3010008F3010008F3010008F3010008FF
:10011000F3010008F3010008F3010008F3010008EF
:10012000F3010008F3010008F3010008F3010008DF
:1001300000F002F800F041F80AA090E8000C8244B8
:100140008344AAF10107DA4501D100F036F8AFF295
:10015000090EBAE80F0013F0010F18BFFB1A43F0A5
:1001600001031847C4240000E4240000103A24BF0F
:1001700078C878C1FAD8520724BF30C830C144BF0C
:1001800004680C607047000000230024002500264E
:10019000103A28BF78C1FBD8520728BF30C148BFEA
:1001A0000B607047782900F04580002070471FB52C
:1001B00002F017FA1FBD10B510BD00F067F9114627
:1001C000FFF7F5FF00F04CFF00F085F903B4FFF7EF
:1001D000F2FF03BC00F08AFA09488047094800474B
:1001E000FEE7FEE7FEE7FEE7FEE7FEE7FEE7FEE7E7
:1001F000FEE7FEE704480549054A064B7047000044
:100200007505000831010008F8000020F8080020FA
:10021000F8040020F8040020704700000FB40449DF
:1002200010B503AA029800F0FFF810BC5DF814FBAB
:100230000800002070B504460D4621461068AFF353
:1002400000802188090502D50F4A7A4402E00E4A4F
:100250007A440E32002104F1240305E000F00F0679
:100260000009965D5E54491C0028F7D120780023D0
:10027000000704D5702D02D009B1022311322046A7
:10028000BDE8704000F077B89E2300002DE9F041F2
:100290000F4604460020DFF88480F84420622046A0
:1002A000E168884790B3252806D0D4E9012190471A
:1002B000206A401C2062F2E700252046E16888475A
:1002C0002028064608DB312E06D208EB060010F87F
:1002D000200C08B10543F0E7A80701D525F0040577
:1002E000A6B1A6F14100192802D8203645F40065D0
:1002F0003A46314620462560FFF754FF48B10128B1
:1003000005D0FF1D27F007070837C8E703E03F1DAA
:10031000C5E73046C9E7206ABDE8F08176230000D2
:100320004FF0000200B5134694469646203922BF8E
:10033000A0E80C50A0E80C50B1F12001BFF4F7AFD9
:10034000090728BFA0E80C5048BF0CC05DF804EBBB
:10035000890028BF40F8042B08BF704748BF20F829
:10036000022B11F0804F18BF00F8012B7047704727
:100370007047704770472DE9F0470D469946924601
:10038000044600F124080168880604D5E06921F0DC
:100390001001216000E00120A84201DD471B00E0C0
:1003A0000027A1697A1902EB0900081AA0612078D8
:1003B000C00602D42046AFF30080002608E0D4E94E
:1003C00001211AF806009047206A401C761C206222
:1003D0004E45F4DB2078C0060AD52046AFF30080F6
:1003E00006E0D4E9012130209047206A401C2062B9
:1003F000381EA7F10107F4DC07E0D4E9012118F861
:1004000005009047206A401C2062281EA5F10105C6
:10041000F3DC2046AFF300802078000602D50220EE
:10042000BDE8F0870120FBE7074B70B50D467B4424
:1004300000F011F80446284600F020F810B14FF003
:10044000FF3070BD204670BDDB09000001694A1C09
:1004500002610878704700B58FB0CDE90131002105
:10046000059105497944CDE9031011466846FFF727
:100470000DFF0FB000BD0000E5FFFFFF007B00F0A7
:100480008000704700487047940000207546FFF7D1
:10049000F9FFAE4605006946534620F00700854641
:1004A00018B020B5FFF7A6FEBDE820404FF00006CB
:1004B0004FF000074FF000084FF0000B21F007014C
:1004C000AC46ACE8C009ACE8C009ACE8C009ACE88F
:1004D000C0098D46704710B50446AFF30080204632
:1004E000BDE81040FFF772BE00BFFEE700B585B063
:1004F00014216846FFF714FF6A460121024800F004
:1005000070FA05B000BD000000640040024601F032
:100510008003012A01D183F080034806010E002BDD
:1005200001DD81F01D01084670472DE9F0410746C5
:10053000FF251F240AE027FA04F000F001062946EF
:100540003046FFF7E3FF0546601EC4B2072CF2DC1D
:10055000E843C5B22846BDE8F081704700BFFEE71A
:1005600000BFFEE770477047704710B500F0F6FB1C
:1005700010BD000008B52648006840F4700024490A
:1005800008602448006840F001002249086000BF6C
:100590002048006800F002000028F9D000BF1D4884
:1005A000406840F080001B4948600020009002E055
:1005B0000098401C009000985028F9D315484068D6
:1005C00040F09000134948600020009002E000983D
:1005D000401C009000985028F9D300BF0D48406897
:1005E00020F003000B494860084600680A490840AB
:1005F000084908604FF41F0088600846006820F42E
:100600008020086000204860C86201F0C9F908BD78
:1006100088ED00E000100240FFFFF6FE10B50A482A
:100620000078401C08490870084600780A2805DB55
:100630000120064908700020034908700121044880
:1006400001F02EFB10BD00000C0000200D0000206A
:100650000004004010B51E491E4801F007FCB0B16F
:100660001B491C4801F0F9FB1A4801F06FFBC1B2AD
:10067000194802780078401C174B187017488154AD
:1006800018460078642802DB0020194608701449D7
:10069000104801F0EBFBC8B10E4801F057FB1049C0
:1006A0000C4801F0DAFB0C48007805280ED10B4805
:1006B000007855280AD109484078AA2806D1074869
:1006C0000079032802D101200649087010BD0000FE
:1006D0000503050000380140040000201800002038
:1006E000040304000500002000BFFEE700BF7047C0
:1006F00000B589B0144800F029F840F2197000F0F4
:10070000F5FD06A9002000F0DEF901A9012000F0A6
:10071000DAF90D208DF81A0000208DF81B000F204B
:10072000ADF8220006A9084800F0C6F80120ADF88F
:100730000E008DF8140001A800F018F811210248ED
:1007400000F04BF909B000BD0064004010B504464C
:100750000548844207D140F2194000F0E7FD40F21D
:10076000194000F0D3FD10BD0064004010B5002119
:10077000837A012202FA03F13E4A126842F0010232
:100780003C4B1A603B4A1C3212688A43394B1C337B
:100790001A60C289DAB9374A0C3212688A43354B7B
:1007A0000C331A60C288344B03EA024243881A436E
:1007B0004389304C403444F8332082882E4B03EA7E
:1007C000024203881A43438904EBC3035A60C28977
:1007D000012A1BD1274A0C3212680A43254B0C33DD
:1007E0001A600288244B03EA024243881A43438971
:1007F000204C403444F8332082881F4B03EA0242E5
:10080000C3881A43438904EBC3035A6082893AB907
:10081000184A121D12688A43164B1B1D1A6006E007
:10082000144A121D12680A43124B1B1D1A600289DA
:100830003AB9104A143212688A430E4B14331A60C4
:1008400006E00C4A143212680A430A4B14331A6049
:10085000027C012A06D1074A1C3212680A43054B62
:100860001C331A60034A126822F00102014B1A601D
:1008700010BD0000006600400000FFFF10B540F210
:10088000197000F033FD40F2026000F02FFD4FF4CC
:10089000C06000F02BFD4FF400630322482105489F
:1008A00000F0C6FA4FF4805303221821014800F0EB
:1008B000BFFA10BD0008014070B502464FF6FF7345
:1008C0000020146824F002041460146844F0010449
:1008D000146000E05B1E546804F001040CB9002BA6
:1008E000F8D1546804F001040CB9002074E00C78CD
:1008F0004FF0404505EA84744D784FF0407606EAA3
:1009000005652C438D784FF4702606EA05452C4387
:10091000CD784FF4E00606EA05552C434D896D1E4F
:10092000C5F309052C43D4610C79012C04D114685A
:1009300044F08004146003E0146824F08004146020
:100940004C79012C04D1146844F04004146003E095
:10095000146824F0400414608C79012C04D11468CC
:1009600044F02004146003E0146824F020041460B0
:10097000CC79012C04D1146824F01004146003E035
:10098000146844F0100414600C7A012C04D114682B
:1009900024F00804146003E0146844F008041460B0
:1009A0004C7A012C04D1146844F00404146003E070
:1009B000146824F004041460146824F00104146022
:1009C0004FF6FF7300E05B1E546804F001040CB1A5
:1009D000002BF8D103B1012070BD42690A43426186
:1009E000704710B500F5D87303EB01131B6803F0D3
:1009F00004031372137A3BB900F5D87303EB0113A8
:100A00001B685B0D136006E000F5D87303EB011360
:100A10001B68DB08536000F5D87303EB01131B68F8
:100A200003F00203537200F5DA7303EB01131B6842
:100A30001B0AD37400F5DA7303EB01131B6803F090
:100A40000F03937200F5DC7303EB01131B68D37281
:100A500000F5DC7303EB01131B681C0A147300F52B
:100A6000DC7303EB01131B681C0C547300F5DC737F
:100A700003EB01131B681C0E947300F5DE7303EB8C
:100A800001131B68D37300F5DE7303EB01131B68BE
:100A90001C0A147400F5DE7303EB01131B681C0CB5
:100AA000547400F5DE7303EB01131B681C0E947481
:100AB00021B9C36843F02003C36003E0036943F036
:100AC0002003036110BD10B5024609B900BFFEE75F
:100AD00032B1012A16D0022A20D0032A41D12EE0B9
:100AE00000234B71CB718B7140F2FF334B8100239C
:100AF0000B724B7002238B700023CB700B714B7207
:100B00000B7030E00123CB8100230B740B810B8031
:100B10004B808B80CB808B814B8124E0002005E0D3
:100B2000002401F10B031C54431CD8B20828F7D34E
:100B300000238B724B600B724B720B6013E0002032
:100B400005E0002401F10B031C54431CD8B2082813
:100B5000F7D300238B724B600B72CB744B720B601C
:100B600001E000BFFEE700BF10BD10B540F21D70F0
:100B700000F0BCFB00F03EF8012000F0C3F80021BB
:100B8000012000F0D1F8012000F068F8012000F009
:100B90003BF8B7EE000A00F073F810BD90B921B130
:100BA000012905D002290BD106E0114B1A6008E09B
:100BB0000F4B1B1D1A6004E00D4B08331A6000E058
:100BC00000BF13E021B1012906D002290CD107E0B2
:100BD000074B0C331A6008E0054B10331A6004E031
:100BE000034B14331A6000E000BF00BF70470000E1
:100BF0000874004010B540F21D4000F097FB40F231
:100C00001D4000F083FB10BD30B90749096841F071
:100C10000101054A116005E00349096841F480318A
:100C2000014A1160704700000074004010B54FF495
:100C3000C06000F05BFB40F2026000F057FB202335
:100C400003220021014800F0F3F810BD0008014024
:100C500010B5FFF7EBFFFFF788FF10BD30B907496C
:100C6000096821F00201054A116005E0034909689D
:100C700021F40031014A1160704700000074004007
:100C800010B52DED088BB0EE408A18EE100A01F079
:100C900037FC41EC190B9FED160B53EC102B01F0B8
:100CA000F9FB03D29FED140AB0EE408A18EE100A49
:100CB00001F026FC41EC1B0B9FED0D0B53EC102BB0
:100CC00001F028F941EC1A0B9FED0C0B53EC102BA3
:100CD00001F0E2FA41EC190B01F074FA84B22246F9
:100CE00001210846FFF75AFFBDEC088B10BD00003C
:100CF0006666666666660A4033335340000000004D
:100D0000E0FFEF4030B90749096821F00401054AC6
:100D1000116005E00349096821F48021014A11604E
:100D2000704700000074004050B90B4A126822F06E
:100D3000C002094B1A601A4612680A431A600AE098
:100D4000054A126822F44002034B1A601A461268E0
:100D500042EA01421A60704700740040044800688B
:100D600020B103480068401E014908607047000038
:100D7000100000200146114A12884A434FF0E02338
:100D80005A6100229A611A46126942F001021A6100
:100D900000BF4FF0E022106900F001021AB100F428
:100DA0008032002AF5D04FF0E022126922F00102D1
:100DB0004FF0E0231A6100229A617047160000206C
:100DC0000146114A12784A434FF0E0235A6100224B
:100DD0009A611A46126942F001021A6100BF4FF08F
:100DE000E022106900F001021AB100F48032002AFA
:100DF000F5D04FF0E022126922F001024FF0E0231B
:100E00001A6100229A6170471400002070B50446F0
:100E10000D46E1B2054800F09EFF00BF07210348E0
:100E200000F0EBFF0028F9D0204670BD00380140EB
:100E3000F0B5044616460025002201F00F0501F02A
:100E4000100747B1042E05D145F00305E76B1F439A
:100E5000E76300E0354300201EE0012787401F4084
:100E6000C7B122684FEA800C0F2707FA0CF7BA4384
:100E7000870005FA07F73A43282904D1012787405C
:100E80001F40676105E0482903D1012787401F40C3
:100E900027612260471CB8B20828DED3082022E070
:100EA000012787401F40E7B16268A0F108074FEAB9
:100EB000870C0F2707FA0CF7BA43A0F10807BF0009
:100EC00005FA07F73A43282904D1012787401F4034
:100ED000676105E0482903D1012787401F4027614A
:100EE0006260471CB8B21028DAD3F0BD02469068A1
:100EF000084008B1012070470020FCE7F0B50A4621
:100F0000002300240021002500F00046B6F1004F28
:100F100002D11D4EF16901E01B4E7168C0F303451B
:100F200083B200F44016B6F5401F08D121F0E0610D
:100F3000154E766826F0E066134F7E6012E000F4EE
:100F40008016B6F5801F06D1032606FA05F4A143E4
:100F500041F0E06106E0460D360103FA06F6B143C2
:100F600041F0E06122B1460D360103FA06F6314345
:100F700000F00046B6F1004F02D1034EF16101E0EE
:100F8000014E7160F0BD00000000014010B500206E
:100F900000F018F8012000F015F810BD1CB501A8EC
:100FA00000230090034807C800F0D0F904469DF8DC
:100FB00004001CBD7C00002010B504462046FFF74D
:100FC000FFFE10BD10B5044614B1012C3DD11EE04A
:100FD00040F2036000F08AF940F2026000F086F906
:100FE0001B481C4908601C4848600120088180207B
:100FF00048810B89032208681021FFF719FF154962
:101000004B89032248681021FFF712FF1EE040F2CF
:10101000026000F06BF940F2026000F067F90E48E0
:101020000E490860486010200881082048810B891B
:10103000032208681021FFF7FBFE08494B890322B1
:1010400048681021FFF7F4FE00E000BF00BF10BDAC
:10105000000C01407C0000200008014088000020B6
:101060001CB50FA103C9CDE9000100F0B1FC00F0EF
:10107000BDF900F01FFAFFF7EBFD00F079FBFFF779
:1010800085FF00F0C7FC09E06420FFF773FEFFF75F
:1010900085FF0446214604A0FFF7C0F8F4E70000EE
:1010A000112233445566778869636D32303934389C
:1010B000206964203D202523780D0A002DE9F041A8
:1010C00003460D46164600240027A0462A4800681D
:1010D00000F4E060B0F5E06F03D100BF4FF004080A
:1010E00030E02548006800F4E060B0F5C06F03D13F
:1010F00001274FF0030825E01F48006800F4E06076
:10110000B0F5A06F02D10227B8461BE01A4800686C
:1011100000F4E060B0F5806F03D103274FF00108C1
:1011200010E01548006800F4E060B0F5407F03D19E
:1011300004274FF0000805E04FF4A06000F020F80D
:101140000227B846C7F1040005FA00F4C8F104010B
:101150000F20C8403040044324010848C45403F021
:101160001F01012088405911890001F1E021C1F8D7
:101170000001BDE8F08100000CED00E000E400E0BB
:1011800002490143024A1160704700000000FA055D
:101190000CED00E02DE9F04F8CB0074600200A90DE
:1011A0004AA090E8004CC068CDE905BECDF810A07B
:1011B00007900FF21C1ADAE9000ACDE9020A0FF2D1
:1011C000101ADAE9000ACDE9000A44484068C0F381
:1011D00081000B900B9820B1012804D002283FD148
:1011E00003E03F4A3EE03E4A3CE03C48406800F4B1
:1011F000803CBCF5803F12D13848C06A00F080487E
:10120000B8F1000F01D1364B00E0364B334840684F
:1012100000F40039B9F5003F02D15B0800E0324B21
:101220002E484068C0F383412C48406800F00060BD
:1012300008B141F010012948406800F0804008B131
:1012400041F020010F2901D2891C06E00F2903D3A8
:101250003E2901D8491C00E03F2103FB01F201E0D7
:101260001F4A00BF00BF1D484068C0F3031504A813
:10127000465D22FA06F419484068C0F3022502A828
:10128000465D24FA06F0099014484068C0F3C22570
:101290001DF8056024FA06F0089037B1012F06D03A
:1012A000022F06D0032F0AD106E00A9208E00A9422
:1012B00006E009980A9003E008980A9000E000BF51
:1012C00000BF0A980CB0BDE8F08F000000000000DD
:1012D0000000000001020304060708090010024094
:1012E00000127A00006CDC0200093D00064A02EBA5
:1012F0009011096800F01F0301229A401143024B2C
:1013000003EB90121160704700100240064A02EB96
:101310009011096800F01F0301229A409143024B8B
:1013200003EB90121160704700100240064A02EB76
:101330009011096800F01F0301229A401143024BEB
:1013400003EB901211607047001002407FB51C46FD
:10135000089D0A20FFF730FE9DE8070000F085F9A0
:1013600068239DE8070000F0B5F930B99DE8070053
:1013700000F099F9012004B070BD0A20FFF71CFEAF
:1013800023469DE8070000F0A5F928B99DE807006D
:1013900000F089F90220EEE79DE8070000F083F9EC
:1013A0000A20FFF709FE9DE8070000F05EF96923B7
:1013B0009DE8070000F08EF928B99DE8070000F0CD
:1013C00072F90320D7E70A20FFF7F6FD9DE8070032
:1013D00000F0F8F828709DE8070000F028F99DE873
:1013E000070000F060F90020C5E7000010B54FF4D9
:1013F000C060FFF77BFF01210420FFF77FFD40F273
:101400000360FFF773FF40F20E60FFF76FFF4FF4CA
:101410008073032210212548FFF70AFD4023032291
:1014200018212248FFF704FD8023032204211F48CE
:10143000FFF7FEFC1E4800F093FC4FF4E1311C481E
:1014400000F03CFC00211A4800F02CFD0021184857
:1014500000F04CFD0021164800F036FD0021144834
:1014600000F0E4FC0021124800F0D6FC08211048EE
:1014700000F032FD04210E4800F01CFD0C4800F085
:10148000B7FC002211462520FFF718FE40F2053177
:10149000074800F0D5FC4FF44171054800F0D0FC3E
:1014A0004FF4807001491031086010BD000C0140FC
:1014B0000038014038B5002400F0B4F90C4800F0C1
:1014C00059F8C820FFF756FC0A4800F053F8C82026
:1014D000FFF750FC6946084800F010F869460648D6
:1014E00000F00CF86946044800F008F838BD000028
:1014F000982000B4380300B4E50000182DE9F84343
:1015000004460E464FF00008002700200090200EF1
:101510008DF80000200C8DF80100200A8DF80200E3
:10152000E0B28DF803004FF48050114908600025A7
:101530000BE03F021DF8050042F2107100F01EF9A9
:101540007055705D0744681CC5B2042DF1DB4FF483
:1015500080500749091F08603846FEF7E6FF8046BD
:10156000F078404502D10120BDE8F8830020FBE778
:10157000140C014038B5044600200090200E8DF870
:101580000000200C8DF80100200A8DF80200E0B266
:101590008DF803004FF4805009490860002507E0EA
:1015A0001DF8050042F2107100F0E8F8681CC5B2A1
:1015B000042DF5DB4FF480500149091F086038BD48
:1015C000140C014037B50024BDF80A300322042171
:1015D0000198FFF72DFC0520FFF7EEFC08251BE026
:1015E0000520FFF7E9FCBDF8080000990861052017
:1015F000FFF7E2FC6006040EBDF80A100198FFF741
:1016000075FC08B1601CC4B2BDF8080000994861BF
:101610000520FFF7D1FC6D1E002DE1D1BDF80A3089
:10162000032210210198FFF703FC20463EBD07B5B9
:10163000BDF80A00019908610520FFF7BDFCBDF85F
:101640000800009908610520FFF7B6FCBDF8080006
:10165000009948610520FFF7AFFCBDF80A00019929
:1016600008610520FFF7A8FC0EBD07B5BDF80A000C
:10167000019908610520FFF79FFCBDF8080000995B
:1016800008610520FFF798FCBDF80A000199486140
:101690000520FFF791FCBDF808000099486105207E
:1016A000FFF78AFC0EBD07B5BDF80A000199486135
:1016B0000520FFF781FCBDF80800009908610520AE
:1016C000FFF77AFCBDF80A00019908610520FFF7D1
:1016D00073FC0EBD7FB51E4600241CE006FA04F024
:1016E00000F0800020B1BDF80A000199086103E014
:1016F000BDF80A00019948610520FFF75DFCBDF8BF
:101700000800009908610520FFF756FCBDF80800A5
:1017100000994861641C082CE0D3BDF80A3003220C
:1017200004210198FFF784FB0520FFF745FCBDF875
:101730000800009908610520FFF73EFCBDF80A107B
:101740000198FFF7D3FB08B1002500E00125BDF8A3
:101750000800009948610520FFF72EFCBDF80A300B
:10176000032210210198FFF763FB284604B070BDE7
:1017700010B5FFF783F8FEF7BBFF10BD70B5054647
:101780000C460026264603E00CB1641E00E005E08E
:1017900002210D4800F025F80028F5D000BF2946A9
:1017A000094800F01CF803E00EB1761E00E005E0E9
:1017B0000121054800F015F80028F5D000BF0248C7
:1017C00000F009F8C0B270BD00380040016841F077
:1017D0004001016070470146C86880B27047C1602F
:1017E000704702469068084008B101207047002009
:1017F000FCE702460020106800F441500B681843D3
:101800004B6818438B681843CB6818430B6918431F
:101810004B6918438B6918431060D36923F4006344
:10182000D361704700B587B040F20360FFF75EFDFB
:1018300040F20E70FFF75AFD4FF4204303221821A7
:101840001648FFF7F5FA4FF480530322102113488E
:10185000FFF7EEFA4FF48043032204210F48FFF70D
:10186000E7FA002001904FF482700090002002906F
:1018700005904FF40070039018200690002004900B
:1018800069460748FFF7B5FF0548FFF79FFF4FF48C
:10189000805002491431086007B000BD000C0140BF
:1018A0000038004000200021394A126842F001024D
:1018B000374B1A6000BF401C354A126802F0020123
:1018C00011B9B0F5A06FF6D1314A126802F00202E8
:1018D0000AB900BFFEE72E4AD26942F080522C4B73
:1018E000DA612C4A126842F440422A4B1A60284AB4
:1018F0005268274B5A601A4652685A601A46526814
:1019000042F480625A601A465268234B1A40204BB8
:101910005A601A465268214B1A431D4B5A601A46A8
:10192000126842F080721A6000BF194A126802F011
:101930000072002AF9D0174A126842F48032154B1F
:101940001A6000BF134A526802F48032002AF9D0AC
:10195000104A126842F400320E4B1A6000BF0D4A62
:10196000526802F40032002AF9D0094A526822F083
:101970000302074B5A601A46526842F002025A604C
:1019800000BF034A526802F00802002AF9D07047EB
:101990000010024000700040FFFFC3B70000340891
:1019A00010B5FFF77FFF10BD042808D14FF0E021EC
:1019B000096941F004014FF0E022116107E04FF0A6
:1019C000E021096921F004014FF0E0221161704724
:1019D00010B56FF00400FFF7E7FF0A4800680A49F6
:1019E000B0FBF1F0094908700846007800EB4001AF
:1019F000C1EBC0104FF6FF7101EAC0000449088036
:101A000010BD00000000002000127A001400002029
:101A1000160000201FB540F20170FFF767FC684612
:101A200000F041F9114800F023F840F2CF70029025
:101A30000020ADF8020040F2AF40ADF800000020F9
:101A4000ADF80600ADF804006946084800F0D8F883
:101A5000064800F0CFF8032201211D20FFF72EFBDE
:101A60000121024800F018F91FBD000000040040E9
:101A700010B504465C49601A8C426FD019DC5B4992
:101A8000A4EB01008C424ED009DCB4F1804F2ED083
:101A900057482044A0B3B0F5806F72D13AE0B0F55A
:101AA000806F49D0B0F5006F4FD0B0F5406FF4D1E2
:101AB0007BE0B0F5983F5BD009DCB0F5806F73D068
:101AC000B0F5883F0AD0B0F58C3F5AD147E0B0F569
:101AD0009A3F57D0B0F59C3F53D15CE040F20B30B9
:101AE000FFF724FC40F20B30FFF710FC79E04FF4D5
:101AF0008060FFF71BFC4FF48060FFF707FC70E08D
:101B0000FFE740F20140FFF711FC40F20140FFF710
:101B1000FDFB66E040F20240FFF708FC40F20240A5
:101B2000FFF7F4FB5DE040F20340FFF7FFFB40F2FC
:101B30000340FFF7EBFB54E040F20440FFF7F6FBF5
:101B400040F20440FFF7E2FB4BE040F20540FFF7B4
:101B5000EDFB40F20540FFF7D9FB42E02EE040F2FA
:101B60000D30FFF7E3FB40F20D30FFF7CFFB38E01D
:101B700040F21330FFF7DAFB40F21330FFF7C6FBF9
:101B80002FE02DE04FF44570FFF7D0FB4FF4457088
:101B9000FFF7BCFB25E040F21530FFF7C7FB40F232
:101BA0001530FFF7B3FB1CE011E040F20640FFF7F1
:101BB000BDFB40F20640FFF7A9FB12E040F20740F0
:101BC000FFF7B4FB40F20740FFF7A0FB09E04FF43A
:101BD0008160FFF7ABFB4FF48160FFF797FB00E0FC
:101BE00000BF00BF10BD0000001C0040000C004002
:101BF00000FCFFBF016841F0010101607047000077
:101C00000A8882621D4A90420ED0B0F1804F0BD0FC
:101C10001B4A904208D01B4A904205D01A4A904273
:101C200002D01A4A90420BD1026822F07002026080
:101C300002684B881A43026002688B881A4302606C
:101C40008A68C262124A90420AD0124A904207D071
:101C5000026822F4407202600268CB881A43026074
:101C6000064A904202D0094A904201D10A7B02639F
:101C7000426942F00102426170470000002C0140BD
:101C80000004004000080040000C00400034014007
:101C90000010004000140040C2680A43C260704750
:101CA000CA430261704700210180418081804FF664
:101CB000FF7181600021C180017370472DE9F047F9
:101CC00004460D460027B846B94600261D49601A4D
:101CD0008C421CD006DC1C48204470B1B0F5806FEB
:101CE0001FD10FE0B0F5806F16D0B0F56C4F18D152
:101CF0000320FFF74FFA074614E00220FFF74AFAE5
:101D000007460FE00220FFF745FA07460AE00220E7
:101D1000FFF740FA074605E00220FFF73BFA0746C7
:101D200000E000BF00BF07EB5500B0FBF5F64FF633
:101D3000F07006EA000806F00F0948EA0900A06002
:101D4000BDE8F087004C004000BCFFBF014648687A
:101D5000C0F308007047C1F30802426070470000FA
:101D600010B504462049601A8C4228D006DC1F4872
:101D7000204490B1B0F5806F33D117E0B0F5806F9B
:101D800026D0B0F56C4F2CD140F20E30FFF7CEFAD2
:101D900040F20E30FFF7BAFA24E040F21140FFF7AC
:101DA000C5FA40F21140FFF7B1FA1BE040F21240D1
:101DB000FFF7BCFA40F21240FFF7A8FA12E040F237
:101DC0001340FFF7B3FA40F21340FFF79FFA09E020
:101DD00040F21440FFF7AAFA40F21440FFF796FAD7
:101DE00000E000BF00BF10BD004C004000BCFFBFC2
:101DF000C16841F40051C160704710B5024602EB62
:101E00009110006801F01F040123A340184008B19D
:101E1000012010BD0020FCE7426922F400724261FB
:101E2000426901F400731A4342617047426922F427
:101E300080724261426901F480731A4342617047C3
:101E400010B500EB9112126801F01F040123A340AA
:101E50001A4300EB91131A6010BDC1F30443012231
:101E60009A40D24300EB91531A60704770B5024616
:101E700000230024C1F38910105801F01F0601252A
:101E8000B54000EA050302EB91500068C1F3044637
:101E90000125B54000EA050414B10BB1012070BD65
:101EA0000020FCE7C26822F4C062C260C2680A4334
:101EB000C2607047C26822F00402C260C26801F0CA
:101EC00004031A43C2607047026922F4405202615F
:101ED00002690A4302617047C26822F00802C260C8
:101EE000C26801F008031A43C2607047C26822F456
:101EF0008052C260C2680A43C2607047491058BF2E
:101F0000C1F140415B1058BFC3F140438B42EFF336
:101F1000008070472DE9C04130B4DFF8A0C23CEA30
:101F2000111418BF3CEA131400F0EC8081EA030599
:101F30001CEA111444EAD57418BF1CEA131500F00A
:101F4000C780A4EB05044FF0004545EAC12145EAEE
:101F5000C32341EA505143EA525304F17F7499423A
:101F600004F500344FEAC0204FEAC22208BF904275
:101F700000F09C804FEA13650FF24016765D4FEA41
:101F8000134506FB05F7C7F1807706FB07F74FEA15
:101F9000D737A7FB03687642C8F58038A7FB06CE83
:101FA00038BFA8F1010807FB08E64FF0000EA6FBBA
:101FB000028CE6FB03CEDCF1000CCEF1004E38BF04
:101FC000AEF1010EA6FB0C584FF000074FF00005D4
:101FD000E6FB0E87A1FB08C6A0FB07CE16EB0E069C
:101FE00045F10005E1FB076515F1E04E7EBFA4F564
:101FF00080345FEA46066D4116F1800745F1000521
:102000004FEA17274FEA066647EA0567A6F1DE465C
:10201000B6F1805F4FEA15251FD9384624F0010C30
:1020200005EBC471BCF1FE6F01EB0C1102D8F0BCE2
:10203000BDE8008124425CBF01F5801E9EEAC47F9A
:1020400002D4F0BCBDE80081244238D4F0BCA1F138
:10205000C041BDE8004100F017BA4FEAD22242EA7F
:1020600043524FEAD323A7FB02864FEAD02040EA2F
:10207000415007FB03661EEA0E0F4FEAD12105FB14
:10208000026658BFA6EB0056B6EB00564FEA520E5A
:102090004EEAC37E18EB0E0E56EB530EBDD518EB71
:1020A00002085E417F1C55F10005B6E74FF480152C
:1020B0004FF000074FF000064FF00008ADE7F0BC0E
:1020C0004FF0000001F1C04101F00041BDE8008186
:1020D00011EA0C1F0CEA131500D00CE013EA0C1FD8
:1020E00000F025804FF00000F0BC81EA030101F010
:1020F0000041BDE80081F0BCBDE8004181EA030178
:1021000000F0C2B9F0BCBDE8004170B500F06EF956
:10211000097EFC3E00F007B881EA03014FF00000A1
:1021200001F00041704781EA030100F0ADB9F0BC55
:10213000BDE800414FF0000021497047FFFDFBF969
:10214000F7F5F4F2F0EEEDEBE9E8E6E4E3E1E0DEEA
:10215000DDDBDAD8D7D5D4D3D1D0CFCDCCCBCAC85C
:10216000C7C6C5C4C2C1C0BFBEBDBCBBBAB9B8B783
:10217000B6B5B4B3B2B1B0AFAEADACABAAA9A8A876
:10218000A7A6A5A4A3A3A2A1A09F9F9E9D9C9C9B44
:102190009A999998979796959594939392919190EF
:1021A0008F8F8E8E8D8C8C8B8B8A89898888878780
:1021B0008685858484838382828181800000FF07F5
:1021C0000000F87F4FEA1153A3F58063D3F11E039B
:1021D000A8BFD3F1200C08DB4FF0004242EAC12235
:1021E00052EA505232FA03F0704709420BD4102BD6
:1021F000C4BF0020704703F5787CBCF1FF3F05D0D9
:102200004FF0FF3070474FF00000704770B500F09E
:10221000EDF800BF4992248000207047F0E70000ED
:1022200051EA030C17D41CF5801F58BFBCF5801F62
:1022300000F10680994218BF704708BF904270476E
:1022400007D711F5801F58BF13F5801F19D4994285
:102250007047894270471CF5801F08D5BCF5801F68
:10226000F7D58B4218BF704708BF824270474FF4C2
:10227000001C1CEB410F38BF1CEB430F01D28B42FB
:10228000704770B500F0B2F8922449004FF0005149
:102290004FF08053FFF732BEDFF848C170B51CEA3B
:1022A000111E1EBF1CEA13159EEA0C0F95EA0C0FB7
:1022B00000F06F8081EA030423EA4C134EEAD47ED7
:1022C00021EA4C1141F4801143F48013AE44A1FB88
:1022D000024CA0FB0365AEF17F7E361955EB0C0571
:1022E000A1FB034C4CF10003A0FB021C16EB0C06F7
:1022F000654153F10003094218BF46F0010613F48B
:10230000007F0BD14FEA03314FEA0530340341EA35
:10231000155140EA16506FF003020AE04FEAC3215C
:102320004FEAC520F40241EA555140EA56506FF099
:10233000020202EB2E4201EB025585EACE710AD071
:102340005FEA440C18BF24F0004450F1000041F152
:10235000000120EAD47040F2FE7C624500D270BDDC
:10236000A84214BF4FF080444FF04044002E08BFF5
:102370000024BEF1806FA8BFA1F1C041BDE870404C
:1023800080F282804FF0000001F1C04101F0004175
:1023900070479EEA0C0F0CEA131518BF95EA0C0F54
:1023A00006D04FF0000081EA030E0EF0004170BD30
:1023B00000F01CF88900013E00F007B800F009B8F1
:1023C0004FEA430C5FEA5C5C08D081EA030100F04D
:1023D0005BB84FEA410C5FEA5C5CF6D14FF000005D
:1023E000014970470000FF070000F87F0EF1020E60
:1023F0002EF0030E5EF8046B364205D4012A43EB3F
:10240000030515F5001F12D8012841EB010C1CF53E
:10241000001F0CD80ED14FEAD17C15F5001F0CEB34
:102420004C0C0CF1020C08BF4CEBD37C04E04FF0D9
:10243000080C01E04FEAD37C0CEB4C0526FA05F6BC
:1024400006F00706B6F1040C06D20EEB860CBDE8CA
:1024500070404CF0010C6047DFE80CF0090B020201
:102460004FF000414FF00000A1F5002170BD19466A
:102470001046012851EB010418BFD4F5001484BFA5
:10248000002001F0004170BD0808A0F500114FEADE
:102490003101704753EA010C17D41CF5801F58BF57
:1024A000BCF5801F00F106808B4218BF704708BF43
:1024B0008242704707D713F5801F58BF11F5801F60
:1024C00019D48B4270479B4270471CF5801F08D57A
:1024D000BCF5801FF7D5994218BF704708BF9042DE
:1024E00070474FF4001C1CEB430F38BF1CEB410F2F
:1024F00001D2994270470FB40CBC03BCFFF7C1BEB8
:1025000043004FEAD30C4FEA3C0C43401FBF400747
:102510000CF1605113F0FE4F70471CF0006F03D1B7
:1025200000200CF0004170470CF0004343EA50706B
:1025300010B540EACC0000F00EF800BF0000009299
:102540004FEA0001FFF7A0BF4FF000414FF000003D
:10255000A1F5002170470EF1020E2EF0030E5EF879
:10256000044B244204D44FEA4102B2F17F4F11D808
:102570004FEA4003B3F17F4F0CD80ED14FEAD07C25
:10258000B2F17F4F0CEB4C0C0CF1020C08BF4CEB82
:10259000D17C04E04FF0080C01E04FEAD17C0CEB59
:1025A0004C0324FA03F404F00704B4F1040C06D23B
:1025B0000EEB840CBDE810404CF0010C6047DFE8E6
:1025C0000CF0070802024FF00040A0F5800010BD9B
:1025D0000846420018BFD2F1807288BF00F0004068
:1025E00010BD4FF04070E1EE100A704730313233C9
:1025F0003435363738394142434445464030580037
:102600003031323334353637383961626364656668
:1026100040307800040000080000000000000002C4
:102620000001000010000000482600080000002003
:10263000180000006C010008602600081800002047
:10264000E008000088010008000E270700000000D5
:10265000000000000000000000000000000000007A
:0400000508000131BD
:00000001FF
